:020000040800F2
:10000000C00A0020F1130008BD050008BF05000864
:10001000C3050008C7050008CB0500080000000064
:10002000000000000000000000000000CF050008F4
:10003000D105000800000000D3050008D505000820
:100040000B1400080B1400080B1400080B14000814
:100050000B1400080B1400080B1400080B14000804
:100060000B1400080B1400080B1400080B140008F4
:100070000B1400080B1400080B1400080B140008E4
:100080000B1400080B1400080B1400080B140008D4
:100090000B1400080B1400080B1400080B140008C4
:1000A0000B1400080B1400080B1400080B140008B4
:1000B0000B1400080B1400080B1400080B140008A4
:1000C0000B1400080B1400080B1400080B14000894
:1000D0000B140008671300080B1400080B14000829
:1000E0000B1400080B1400080B1400080B14000874
:1000F0000B1400080B1400080B1400080B14000864
:100100000B1400080B1400080B1400080B14000853
:100110000B1400080B1400080B1400080B14000843
:100120000B1400080B1400080B1400080B14000833
:1001300000F002F800F05AF80AA090E8000C82449F
:100140008344AAF10107DA4501D100F04FF8AFF27C
:10015000090EBAE80F0013F0010F18BFFB1A43F0A5
:1001600001031847783B0000983B00000A444FF019
:10017000000C10F8013B13F0070408BF10F8014B06
:100180001D1108BF10F8015B641E05D010F8016B4B
:10019000641E01F8016BF9D113F0080F1EBF10F8AF
:1001A000014BAD1C0C1B09D16D1E58BF01F801CBD2
:1001B000FAD505E014F8016B01F8016B6D1EF9D555
:1001C0009142D6D37047000000230024002500266A
:1001D000103A28BF78C1FBD8520728BF30C148BFAA
:1001E0000B6070471FB51FBD10B510BD02F0CFF8F2
:1001F0001146FFF7F7FF00F009F802F0EDF803B43D
:10020000FFF7F2FF03BC01F053F8000008B54FF010
:10021000000A00F0DDFF01F045F800F0BCFB4FF6EE
:10022000FF7000F096FC4FF6FF70D949086004217A
:10023000D84801F07AFAA9E100F0A3FC43F2C82003
:1002400001F003F8002000F084FC4FF478436422AE
:10025000A021782000F039FE4FF6FF7040F23F13E6
:10026000EF2200210090084600F00AFE43F2C82069
:1002700000F0EBFF4FF6FF7000F06BFC43F2C8207C
:1002800000F0E3FF4FF4784000F063FC4FF4FA70A5
:1002900000F0DBFF4FF4FC6000F05BFC4FF4FA7001
:1002A00000F0D3FF1F2000F054FC4FF4FA7000F070
:1002B000CCFF00F093FC42F6E06000F0C6FF00F0D7
:1002C000D2FC42F6E06000F0C0FF00F0B0FC42F665
:1002D000E06000F0BAFF4FF6FF7000F03AFC202417
:1002E00004EB4400C0F1F0054FF4784005EBD57104
:1002F0000090481023460022114600F0FAFC4FF40B
:10030000784004EB4401C1F1F00505EBD571009094
:1003100004EB610023460122002100F0EAFC4FF4C7
:10032000784004EB4401C1F1F00505EBD57104EB15
:1003300061010090081923460222002100F0D9FC37
:100340001024C4EBC400C0F1F0054FF4784005EB75
:10035000D5710090481023460022282100F0C9FCE6
:100360004FF47840C4EBC401C1F1F00505EBD57141
:10037000009004EB610023460122282100F0B9FC23
:100380004FF47840C4EBC401C1F1F00505EBD57121
:100390004910009001EB440023460222282100F07E
:1003A000A8FC4FF47840C4EBC401C1F1F00505EBA3
:1003B000D57104EB4402009002EB61002346032256
:1003C000282100F096FC4FF47840C4EBC401C1F141
:1003D000F00505EBD5714910009001EB8400234630
:1003E0000422282100F085FC4FF47840C4EBC401BE
:1003F000C1F1F00505EBD57104EB8402009002EB2E
:10040000610023460522282100F073FC4FF4784058
:10041000C4EBC401C1F1F00505EBD571491004EB43
:100420004402009001EB420023460622282100F0FE
:1004300060FC4FF4784358A23C21162000F0E9FDFF
:100440004FF4784357A25021162000F0E2FD4FF4FC
:1004500078400323F02250210090522000F005FE46
:100460004FF4784351A26421162000F0D2FD4FF4DE
:10047000784003234FF4A07264210090522000F0D2
:10048000F4FD44F6206000F0E0FE4FF6FF7000F04F
:1004900060FB4FF4FC601A237A2206210090084684
:1004A00000F0EEFC4FF47840102300220821009069
:1004B000084600F01EFC4FF478401023012208216A
:1004C0000090182000F015FC4FF478401023022211
:1004D00008210090282000F00CFC4FF478401023F5
:1004E000032208210090382000F003FC4FF47840EC
:1004F0001023042208210090482000F0FAFB4FF45A
:1005000078401023052208210090582000F0F1FBCC
:100510004FF478401023062208210090682000F054
:10052000E8FB4FF0000911E009EB89012B2303EBF5
:10053000C10209EB8901042303EBC1009F23782149
:1005400000F021FE09F1010000F0FF09B9F1030FED
:10055000EADB1F2323224021084600F0B6FC14E00A
:100560004FF478400523524637210090282000F0B0
:10057000C5FD504602F052F907460E4A0E4B01F0F7
:1005800067FF054601F032FF8246E9E754E60000C6
:100590007403002000140140312E382054465420AA
:1005A000535049004C43445F573A00004C43445F6A
:1005B000483A00007B14AE47E17A843F704700BFA1
:1005C000FEE700BFFEE700BFFEE700BFFEE77047A3
:1005D00070477047704700000CB5002001900090F4
:1005E0006C48006840F480306A49086000BF694880
:1005F000006800F4003000900198401C01900098C1
:1006000018B90198B0F5A06FF1D16248006800F404
:10061000003010B10120009001E00020009000980F
:10062000012843D15C48006840F010005A49086036
:100630000846006820F0030008600846006840F0A3
:1006400002000860534840685249486008464068C4
:1006500048600846406840F480604860084640684A
:1006600020F47C1048600846406840F4E810486078
:100670000846006840F08070086000BF4548006888
:1006800000F000700028F9D04248406820F00300D4
:10069000404948600846406840F00200486000BF9A
:1006A0003C48406800F00C000828F9D10CBD10B59A
:1006B000FFF792FF10BD10B53648006840F001000A
:1006C0003449086008464068344908403149486068
:1006D00008460068324908402E490860084600680C
:1006E00020F4802008600846406820F4FE0048603E
:1006F0004FF41F008860FFF7DAFF4FF000602949D0
:10070000086010BD10B5002100200022214B5B685D
:1007100003F00C0121B1042906D0082928D107E0F3
:10072000214B224C236027E01F4B204C236023E009
:10073000184B5B6803F47010164B5B6803F480324F
:10074000022303EB904022B9194B4343174C23601B
:100750000DE0104B5B6803F4003323B1144B4343AB
:10076000124C236003E0104B4343104C236003E022
:100770000D4B0E4C236000BF00BF064B5B68C3F3FC
:1007800003130C4CE15C094B1B68CB40074C236006
:1007900010BD000000100240002002400000FFF8E1
:1007A000FFFFF6FE08ED00E000127A0000000020D6
:1007B00000093D000400002070B504464FF480514C
:1007C000F84800F0B2FF00251BE04FF40051F54857
:1007D00000F0ABFF04F0800028B14FF40041F14875
:1007E00000F0A1FF04E04FF40041EE4800F09DFF4F
:1007F0004FF40051EB4800F096FF6006040E681CB1
:10080000C5B2082DE1DB4FF48051E64800F08BFFC4
:1008100070BD10B504462146E34801F0F7FC00BF67
:100820000221E14801F045FD0028F9D010BD10B5C6
:1008300004464FF48051DB4800F077FF4FF48041CD
:10084000D84800F072FF2046FFF7E3FF4FF48051D5
:10085000D44800F068FF10BD10B504464FF4805135
:10086000D04800F062FF4FF48041CE4800F05BFFBB
:100870002046FFF7CEFF4FF48051CA4800F053FFE7
:1008800010BD10B504464FF48051C64800F04DFF2E
:100890004FF48041C34800F046FFC4F30720FFF740
:1008A000B8FFE0B2FFF7B5FF4FF48051BD4800F04C
:1008B0003AFF10BD2DE9F04107460C4615461E468D
:1008C0002A20FFF7B4FF3846FFF7DBFF2846FFF783
:1008D000D8FF2B20FFF7ABFF2046FFF7D2FF3046B3
:1008E000FFF7CFFF2C20FFF7A2FFBDE8F08100B596
:1008F00085B00121880301F032F94FF40070ADF8A2
:100900000A000020ADF80800ADF806004FF4827030
:10091000ADF802000020ADF80400ADF80E004FF471
:100920004040ADF800000720ADF810000020ADF801
:100930000C0069469C4801F093FB01219A4801F0A4
:1009400034FC05B000BD08B50121082001F0FAF81B
:100950004FF4B040ADF8000010208DF803000320E4
:100960008DF8020069468F4800F030FE0121082012
:1009700001F0E8F84FF42040ADF8000018208DF8A1
:1009800003006946874800F021FE4FF480518548F6
:1009900000F0C9FE08BD10B5FFF7D5FFFFF7A7FFB0
:1009A0004FF480517F4800F0BEFE4FF400617D4857
:1009B00000F0B9FE4FF480417A4800F0B4FE4FF4E5
:1009C0000061784800F0B1FE142000F03EFC4FF4C6
:1009D0000061744800F0A7FE642000F036FC4FF47C
:1009E0008061704800F09FFE1120FFF720FF782003
:1009F00000F02BFC3620FFF71AFF0020FFF72CFF3A
:100A00003A20FFF714FF5520FFF726FFB220FFF72B
:100A10000EFF0C20FFF720FF0C20FFF71DFF00202A
:100A2000FFF71AFF3320FFF717FF3320FFF714FFFC
:100A3000B720FFF7FCFE3520FFF70EFFBB20FFF7C6
:100A4000F6FE2B20FFF708FFC020FFF7F0FE2C205A
:100A5000FFF702FFC220FFF7EAFE0120FFF7FCFECE
:100A6000C320FFF7E4FE1120FFF7F6FEC420FFF7D6
:100A7000DEFE2020FFF7F0FEC620FFF7D8FE0F2095
:100A8000FFF7EAFED020FFF7D2FEA420FFF7E4FE36
:100A9000A120FFF7E1FEE020FFF7C9FED020FFF71D
:100AA000DBFE0020FFF7D8FE0520FFF7D5FE0E2065
:100AB000FFF7D2FE1520FFF7CFFE0D20FFF7CCFE8B
:100AC0003720FFF7C9FE4320FFF7C6FE4720FFF798
:100AD000C3FE0920FFF7C0FE1520FFF7BDFE122060
:100AE000FFF7BAFE1620FFF7B7FE1920FFF7B4FE96
:100AF000E120FFF79CFED020FFF7AEFE0020FFF7BD
:100B0000ABFE0520FFF7A8FE0D20FFF7A5FE0C2089
:100B1000FFF7A2FE0620FFF79FFE2D20FFF79CFEA9
:100B20004420FFF799FE4020FFF796FE0E20FFF7C6
:100B300093FE1C20FFF790FE1820FFF78DFE162075
:100B4000FFF78AFE1920FFF787FE2920FFF76FFEC7
:100B500010BD70B5064640F23F13EF220021084653
:100B6000FFF7A8FE002409E0002503E03046FFF768
:100B700088FE6D1CB5F5A07FF8D3641CF02CF3D370
:100B800070BD70B588B020220849684601F0C9FBE5
:100B900040F23F13EF2200210846FFF78BFE0024AE
:100BA00015E00000000C014000380040BC3C00088B
:100BB000002509E0002604E05DF82400FFF761FE4F
:100BC000761CF02EF8D36D1C282DF3D3641C082C52
:100BD000EED3002500BF00BF08B070BD70B540F275
:100BE0003F13EF2200210846FFF764FE00251AE0BC
:100BF000002400BF00BF00BF12E000260DE021016D
:100C0000A20041EAD201C8B2FFF726FEE10141EAA3
:100C10004401C8B2FFF720FE761C0F2EEFD3641CF0
:100C2000102CEAD36D1CB5F5A07FE1D370BD70B573
:100C300040F23F13EF2200210846FFF73BFE00245D
:100C400000250CE0002606E02046FFF71AFEE043F0
:100C5000FFF717FE761C782EF6D3E4436D1CB5F52E
:100C6000A07FEFD370BD70B5502640F23F13EF2246
:100C700000210846FFF71EFE002509E0002404E0DD
:100C800047F6EF30FFF7FDFD641CF02CF8D36D1C28
:100C9000B542F3D300251AE0002404E047F6EF3014
:100CA000FFF7EFFD641C3C2CF8D3002403E0002088
:100CB000FFF7E7FD641C782CF9D3002404E047F625
:100CC000EF30FFF7DEFD641C3C2CF8D36D1CB5EB58
:100CD000460FE1D3002509E0002404E047F6EF3099
:100CE000FFF7CFFD641CF02CF8D36D1CB542F3D395
:100CF00070BD2DE9F05F81468A4693461C46102C54
:100D000000D1FA4D202C00D1F94D0AEB0400431E0E
:100D100009EB0400421E51464846FFF7CBFD04FB99
:100D200004F0C11700EB5171C1F3C7080BFB085564
:100D3000002715E000260EE028780121B140084088
:100D400018B10A98FFF79DFD03E0EA480068FFF735
:100D500098FD701CC6B2082EEEDB6D1C781CC7B265
:100D60004745E7DBBDE8F09F70B504460D461646E3
:100D70002B46224629462046FFF79CFD3046FFF7CA
:100D800080FD70BD2DE9F04704460D4616461F460E
:100D9000DDF820A03B46324629462046FFF78AFD73
:100DA000A8460AE0A14604E05046FFF76AFD09F1B3
:100DB0000109B145F8D908F10108B845F2D9BDE8F3
:100DC000F087F8B504460D461646691E601E6B1C7A
:100DD000621C0096FFF7D6FFF8BD2DE9FF4F85B0E6
:100DE00081468A460020039083460798A0EB0904B9
:100DF0000898A0EB0A06CDF80890CDF804A0002CC6
:100E000001DD012705E00CB9002702E04FF0FF37B4
:100E10006442002E02DD4FF0010806E016B94FF0E3
:100E2000000802E04FF0FF386642B44201DD25467B
:100E300000E03546002004901BE0129ADDE9011025
:100E4000FFF792FF039820440390B3440398A8420D
:100E500005DD0398401B0390029838440290AB458F
:100E600004DDABEB050B0198404401900498401C55
:100E70000490691C04988842DFD309B0BDE8F08F64
:100E80002DE9F84305460E4617469846089C33461A
:100E90003A46314628460094FFF79FFF43462A46CC
:100EA000314628460094FFF798FF43463A464146AC
:100EB00028460094FFF791FF43463A4631463846AC
:100EC0000094FFF78AFFBDE8F8832DE9F047064656
:100ED0000F46904699460025444631E0791B301B69
:100EE0004A46FFF741FF791B30194A46FFF73CFF9E
:100EF0003919701B4A46FFF737FF391B701B4A46EA
:100F0000FFF732FF791930194A46FFF72DFF391BD9
:100F100070194A46FFF728FF391970194A46FFF73A
:100F200023FF7919301B4A46FFF71EFF6D1C05FB96
:100F300005F004FB040108FB08F0814200DD641E9B
:100F4000A542CBDDBDE8F0872DE9F84F05460F46F9
:100F500016469A46DDF828B00095E02D02D8B7F580
:100F6000987F01D9BDE8F88FA6F12000C6B207F13D
:100F70000F03EA1D39462846FFF79CFCBAF1000F23
:100F800025D1002420E004EB06105B4911F8009005
:100F90004FF0000811E009F0010018B15846FFF7C2
:100FA00070FC03E053480068FFF76BFC4FEA6909E7
:100FB0006D1C08F1010000F0FF08B8F1080FEADB32
:100FC000009D7F1C601CC4B2102CDCDB1FE00024E1
:100FD0001BE004EB0610484911F800904FF00008A0
:100FE0000EE009F0010028B1391905EB08005A4656
:100FF000FFF7BAFE4FEA690908F1010000F0FF08A7
:10100000B8F1080FEDDB601CC4B2102CE1DB00BFAF
:10101000A8E7F8B505460E4614461F4616E0E02D33
:1010200001D900251036B6F5987F06D9002005466F
:1010300006464FF47840FFF78CFD00972278002396
:1010400031462846FFF780FF0835641C20780028C9
:10105000E5D1F8BD10B50246012000E050430B0079
:10106000A1F10104E1B2F9D110BD2DE9F84F064616
:101070008A4690461D46DDF828904FF0000B00246C
:101080002FE0281B401EC1B20A20FFF7E3FFB8FB88
:10109000F0F00A21B0FBF1F201FB1207BBF1000FE7
:1010A00010D1681EA0420DDD57B9082101FB046074
:1010B000002320225146CDF80090FFF745FF0EE0B7
:1010C0004FF0010B07F13001CAB2082101FB0460A7
:1010D00000235146CDF80090FFF736FF00BF601C9B
:1010E000C4B2AC42CDDBBDE8F88F00009402002012
:1010F00014000020740300204C2A00082DE9FC5F36
:1011000006468A4617461C46DDF8308000200190CE
:101110002D49384601F0CEFB009001F0ABFB834631
:1011200000252CE0601B401EC1B20A20FFF792FF91
:10113000BBFBF0F00A21B0FBF1F201FB1209A01E8B
:10114000A8420ED1A11E082202FB016000232E221C
:101150005146CDF80080FFF7F7FE681CC5B2601C51
:10116000C4B209F13001CAB2082101FB05600023B5
:101170005146CDF80080FFF7E7FE681CC5B2A542D6
:10118000D0DBBDE8FC9F2DE9F04105460E46174631
:10119000984643463A4631462846FFF78BFB0024E3
:1011A0000CE0012101EB4401084A505CFFF754FBBD
:1011B000064911F81400FFF74FFB641CB4F5C86F23
:1011C000EFDBBDE8F08100000000C8423C300008C1
:1011D00010B56FF0040000F07AF92E4800682E492F
:1011E000B0FBF1F02D4908700846007800EB400193
:1011F000C1EBC0104FF6FF7101EAC000284908801A
:1012000010BD0146254A12784A434FF0E0235A6147
:1012100000229A611A46126942F001021A6100BF67
:101220004FF0E022106900F001021AB100F48032A0
:10123000002AF5D04FF0E022126922F001024FF0AF
:10124000E0231A6100229A6170470146144A12880D
:101250004A434FF0E0235A6100229A611A4612690C
:1012600042F001021A6100BF4FF0E022106900F065
:1012700001021AB100F48032002AF5D04FF0E022CA
:10128000126922F001024FF0E0231A6100229A61F4
:10129000704700000000002000127A007803002050
:1012A0007A03002010B54FF4A06000F0C1F810BD23
:1012B000014600BF704700BF494A128802F0400251
:1012C000002AF9D0C2B2464B1B1D1A80704710B5D8
:1012D00086B00446012144F2050000F033FC4FF4CF
:1012E0000070ADF8140003208DF8160018208DF85A
:1012F000170005A93B4800F069F94FF48060ADF88C
:10130000140004208DF8170005A9364800F05EF996
:1013100025208DF8000003208DF801008DF80200D3
:1013200001208DF80300684600F087F80194002042
:10133000ADF80800ADF80A00ADF80C00ADF81000EB
:101340000C20ADF80E0001A9254800F0A2FC0122F6
:1013500040F22551224800F034FD0121204800F0E0
:1013600024FD06B010BD10B540F225511C4800F018
:101370000DFE10B31A4800F089FDC4B21A48008867
:1013800000F40040C8B91848008800F4804060B1FB
:101390000A2C03D000201449088020E0124800885D
:1013A00040F400401049088019E00D2C06D10E4889
:1013B000008840F480400C49088010E00A4800880A
:1013C000C0F30D0009490C5407480088401C064929
:1013D000088008460088C72801DD0020088010BD6D
:1013E00000380140000801408003002098030020DD
:1013F0000948804709480047FEE7FEE7FEE7FEE7A9
:10140000FEE7FEE7FEE7FEE7FEE7FEE704480549E4
:10141000054A064B70470000B70600083101000876
:10142000C0040020C00A0020C0060020C006002022
:1014300031490143314A1160704770B500210023E2
:101440000F22C47804B32D4C246804F4E064C4F57E
:10145000E064210AC1F10403CA40447804FA03F1AC
:101460008478144021430901254C0678A15504785D
:1014700004F01F050124AC4005786D11AD0005F1A5
:10148000E025C5F8004109E0047804F01F050124B7
:10149000AC401C4D0678761145F8264070BD1A4ABE
:1014A0000A400243154B1B1F1A60704739B1134A9B
:1014B000121D12680243114B1B1D1A6006E00F4AF1
:1014C000121D126882430D4B1B1D1A6070470428C1
:1014D00008D14FF0E021096941F004014FF0E0220A
:1014E000116107E04FF0E021096921F004014FF09C
:1014F000E0221161704700000000FA050CED00E0E9
:1015000000E400E080E100E080FFFF1F10B504462A
:10151000CC48844208D10121042000F02DFB002199
:10152000042000F029FB46E0C748844208D101218D
:10153000082000F021FB0021082000F01DFB3AE00C
:10154000C248844208D10121102000F015FB00217F
:10155000102000F011FB2EE0BD48844208D101218B
:10156000202000F009FB0021202000F005FB22E0F4
:10157000B848844208D10121402000F0FDFA002142
:10158000402000F0F9FA16E0B348844208D1012166
:10159000802000F0F1FA0021802000F0EDFA0AE04E
:1015A000AE48844207D10121801500F0E5FA002100
:1015B000A01500F0E1FA10BD10B50121084600F0B9
:1015C000DBFA0021012000F0D7FA10BD2DE9F0412F
:1015D000024600250026002000230024002791F861
:1015E00003C00CF00F0591F803C00CF0100CBCF117
:1015F000000F03D091F802C04CEA050591F800C035
:10160000BCF1000F31D0146800202BE04FF0010C2A
:101610000CFA00F3B1F800C00CEA03069E4220D198
:1016200083004FF00F0C0CFA03F7BC4305FA03FCE0
:101630004CEA040491F803C0BCF1280F06D14FF026
:10164000010C0CFA00FCC2F814C00AE091F803C0C7
:10165000BCF1480F05D14FF0010C0CFA00FCC2F8A8
:1016600010C0401C0828D1D31460B1F800C0BCF1F0
:10167000FF0F34DD546800202EE000F1080C4FF01D
:10168000010808FA0CF3B1F800C00CEA03069E4208
:1016900021D183004FF00F0C0CFA03F7BC4305FA7D
:1016A00003FC4CEA040491F803C0BCF1280F05D1F7
:1016B00000F1080C08FA0CF8C2F8148091F803C085
:1016C000BCF1480F07D100F1080C4FF0010808FAEF
:1016D0000CF8C2F81080401C0828CED35460BDE836
:1016E000F0814FF6FF710180022181700421C170E9
:1016F00070470246002093680B400BB1012000E0C8
:10170000002070470146886880B27047024600207A
:10171000D3680B400BB1012000E000207047014668
:10172000C86880B2704701617047416170470AB173
:10173000016100E041617047C16070474FF4803241
:101740000A438261816182618269826970470246CF
:101750000020434B18684FF68073184040EA02108F
:1017600008433F4B186070473E49C8617047F0B569
:101770000A46002300240021002500F00046B6F1AF
:10178000004F02D1364EF16901E0354E7168C0F369
:10179000034583B200F44016B6F5401F08D121F08E
:1017A00070612F4E766826F070662D4F7E6012E0D5
:1017B00000F48016B6F5801F06D1032606FA05F45C
:1017C000A14341F0706106E0460D360103FA06F6CA
:1017D000B14341F0706122B1460D360103FA06F6BD
:1017E000314300F00046B6F1004F02D11C4EF161CA
:1017F00001E01B4E7160F0BD30B500228B071C0F5D
:101800000F2303FA04F2164B08338C1053F82430DC
:101810009343134C08348D1044F8253023468C1024
:1018200053F824308C07240F00FA04F423430C4CA3
:1018300008348D1044F8253030BD0A49DC31086089
:101840007047000000080140000C014000100140FA
:101850000014014000180140001C0140002001401C
:101860000000014000002042DF48006840F0010015
:10187000DD49086008464068DC490840DA494860AC
:1018800008460068DA490840D749086008460068F9
:1018900020F4802008600846406820F4FE0048607C
:1018A0004FF41F0088607047CF49096821F48031E8
:1018B000CD4A11601146096821F480211160B0F50C
:1018C000803F03D0B0F5802F0ED106E0C6490968ED
:1018D00041F48031C44A116007E0C349096841F40A
:1018E000A021C14A116000E000BF00BF704710B5E1
:1018F00001460022002300204A11012A02D1BA4CDD
:10190000236806E0022A02D1B74C236A01E0B64CF4
:10191000636A01F01F02012494401C400CB10120B5
:1019200000E0002010BD38B5002000900024002504
:1019300000BF3120FFF7DBFF05460098401C0090F8
:101940000098B0F5A06F01D0002DF2D03120FFF744
:10195000CEFF08B1012400E00024204638BD014636
:101960000020A14A106820F0F80040EAC100106091
:101970007047A04908607047024600209A4B58689B
:1019800020F47C1042EA01031843974B58607047DB
:1019900098490866704701460020934A506820F035
:1019A00003000843506070478F48406800F00C0007
:1019B0007047014600208C4A506820F0F000084330
:1019C0005060704701460020874A506820F4E0606C
:1019D00008435060704701460020834A506820F455
:1019E000605040EAC1005060704729B17E4A527A87
:1019F00002437D4B5A7204E07B4A527A82437A4B0F
:101A00005A7270477B49D831086070470146002000
:101A1000754A506820F440400843506070470021E8
:101A2000714A20321170704A82F82010012802D0C9
:101A300004280AD104E001216B4A2032117005E02C
:101A40000521694A2032117000E000BF00BF7047D5
:101A50006949086070476449096A0143624A116232
:101A60007047654944390860704730B5002100224D
:101A7000002400235C4D6D6805F00C0121B10429A0
:101A800005D0082923D105E05C4D056022E05B4DBF
:101A900005601FE0544D6D6805F47012524D6D687D
:101AA00005F48034022505EB92421CB9544D554390
:101AB00005600BE04C4D6D6805F400351DB1504DCF
:101AC0005543056002E04D4D5543056002E04B4D26
:101AD000056000BF00BF444D6D6805F0F0010909C5
:101AE000484D6B5C0568DD4045603F4D6D6805F411
:101AF000E061090A434D6B5C4568DD4085603A4D05
:101B00006D6805F46051C90A3E4D6B5C4568DD4067
:101B1000C560354D6D6805F44041890B3A4D6B5CED
:101B2000C568B5FBF3F5056130BD29B12E4A526990
:101B300002432D4B5A6104E02B4A526982432A4BDF
:101B40005A61704729B1284A92690243264B9A612B
:101B500004E0254A92698243234B9A61704729B178
:101B6000214AD2690243204BDA6104E01E4AD2695D
:101B700082431D4BDA61704729B11B4AD268024388
:101B8000194BDA6004E0184AD2688243164BDA60D7
:101B9000704729B1144A12690243134B1A6104E0D9
:101BA000114A12698243104B1A6170471249403939
:101BB000086070470F49C86470470B49C871704787
:101BC0000948406A40F08070074948627047014602
:101BD0000020054A92680A400AB1012000E0002076
:101BE0007047014988727047001002400000FFF8FA
:101BF000FFFFF6FE000042428004424200127A00DB
:101C000000093D00820300209203002010B5044625
:101C1000FB48844209D101218803FFF7ADFF002171
:101C20004FF48040FFF7A8FF32E0F648844209D124
:101C300001214804FFF7ADFF00214FF40030FFF70A
:101C4000A8FF25E0F048844209D101218804FFF76C
:101C5000A0FF00214FF48020FFF79BFF18E0EB4826
:101C6000844209D10121C804FFF793FF00214FF4FA
:101C70000020FFF78EFF0BE0E548844208D10121E8
:101C80000805FFF786FF00214FF48010FFF781FF62
:101C900010BD2DE9F04786B005460E460024A24649
:101CA00000BFA1460027B08900B100BF2F462C8A93
:101CB0004CF6FF700440F08804432C82AC894EF649
:101CC000F3100440B0883189084371890843044304
:101CD000AC81AC8A4FF6FF400440B0890443AC822B
:101CE00001A8FFF7C2FEC648874202D1DDF810A066
:101CF00001E0DDF80CA0A88900F4004040B10AEB37
:101D0000CA0000EB0A1031684900B0FBF1F807E0A7
:101D10000AEBCA0000EB0A1031688900B0FBF1F849
:101D20006420B8FBF0F004012009642101FB108954
:101D3000A88900F4004040B1322000EBC900B0FB9C
:101D4000F1F000F00700044308E0322000EB091036
:101D50006421B0FBF1F000F00F0004432C8106B0C9
:101D6000BDE8F0874FF41651016000218180C180E9
:101D700001810C21418100218181704710B502460B
:101D80000020108A4FF2FF0318400B884C88234331
:101D90008C882343CC8823431843108210BD002134
:101DA000018041808180C180704721B1828942F4E5
:101DB0000052828104E082894DF6FF731A408281CD
:101DC0007047F0B50346002400260025002040F6A9
:101DD0006A17B94200D100BF1846C1F3421401F09E
:101DE0001F06012707FA06F5012C01D10C3004E08B
:101DF000022C01D1103000E014301AB107682F43D3
:101E0000076002E00768AF430760F0BD1AB1838A3C
:101E10000B43838202E0838A8B4383827047028A6A
:101E20004FF6F0731A400282028A0A430282704718
:101E300082894FF2FF731A40828182890A4382812C
:101E4000704721B1828942F00202828104E08289D6
:101E50004FF6FD731A4082817047028A4FF6DF7396
:101E60001A400282028A0A430282704721B1028A22
:101E700042F48042028204E0028A4BF6FF731A4069
:101E800002827047C1F30802828070470146888849
:101E9000C0F308007047818941F0010181817047DA
:101EA000028BD2B20283028B42EA01220283704784
:101EB000028B02F47F420283028B0A430283704743
:101EC00021B1828A42F02002828204E0828A4FF6A7
:101ED000DF731A408282704721B1828A42F0100279
:101EE000828204E0828A4FF6EF731A408282704742
:101EF00021B1828A42F00802828204E0828A4FF68F
:101F0000F7731A408282704721B1828942F40042FD
:101F1000828103E08289C2F30E028281704721B17F
:101F2000828A42F40062828204E0828A4FF2FF7366
:101F30001A4082827047828A4FF6FB731A4082826F
:101F4000828A0A438282704721B1828A42F0020269
:101F5000828204E0828A4FF6FD731A4082827047C3
:101F600002460020B1F5007F00D100BF13880B406E
:101F70000BB1012000E00020704701F40072B2F5BF
:101F8000007F00D100BFCA430280704770B502468F
:101F9000002400230025002040F66A16B14200D13B
:101FA00000BFC1F3421501F01F03012606FA03F337
:101FB000012D02D19689334006E0022D02D1168A06
:101FC000334001E0968A33400C12012606FA04F4ED
:101FD0001688344013B10CB1012000E0002070BD20
:101FE00010B50022002340F66A14A14200D100BFC0
:101FF0000A1201249440A3B2DC43048010BD000007
:10200000003801400044004000480040004C0040BF
:102010000050004010B50446BE48844208D101215A
:102020008014FFF7A9FD0021A014FFF7A5FD16E01D
:10203000B948844208D101210014FFF7AAFD00210C
:102040002014FFF7A6FD0AE0B448844207D101211D
:10205000C013FFF79EFD0021E013FFF79AFD10BDAE
:1020600010B50022028802F441520B884C882343A9
:102070008C882343CC8823430C8923434C892343F6
:102080008C892343CC8923431A430280838B4FF2EC
:10209000FF74234083830B8A038210BD2DE9F04F28
:1020A00085B005460C464FF0000902274FF00008A6
:1020B0004FF0010B0026B246A88B4FF240010840BA
:1020C000A88302202884B5F81C90A068022801D1BA
:1020D00000BF38E0A08810B94FF0010B01E04FF0CD
:1020E000020B8D48854200D100E000BF6846FFF733
:1020F000BCFCDDF800A0E088B0F5007F0AD14FEA13
:102100001A2000EB80004000A168B0FBF1F0401DF8
:1021100086B20BE04FEA4B10BAFBF0F000EB800008
:102120004000A168B0FBF1F0401D86B20A20B6FB6A
:10213000F0F606F00108A6EB0800C0F34F074FF6D3
:10214000FF7000EA0828022F01DBFF2F02DD0227C3
:102150004FF00008E08840EA080038432884A0884F
:10216000A1890843618808432188084340F400603E
:1021700040EA0909A5F81C9005B0BDE8F08F0021E0
:10218000018041808180C180018141818181C18143
:102190000721018270470021018041808180C18038
:1021A0000221816000218181704721B1028842F0C3
:1021B0004002028004E002884FF6BF731A4002809A
:1021C000704721B1828B42F48062828304E0828B6B
:1021D0004FF6FF331A408283704730B50024002346
:1021E0000C110125A540ABB21AB185881D4385802D
:1021F00002E085889D43858030BD1AB183880B43FA
:10220000838002E083888B4383807047818170479D
:102210000146888970474FF6FF62914204D00288D8
:1022200042F48072028004E002884FF6FF631A4095
:102230000280704721B1828842F00402828004E06B
:1022400082884FF6FB731A408280704702884FF2F3
:10225000FF731A40028002880A4302807047018897
:1022600041F480510180704721B1028842F400524C
:10227000028004E002884DF6FF731A400280704726
:1022800002460020012901D0108B00E0908A70479F
:102290000146088A7047B1F5804F04D1028842F4A4
:1022A0008042028004E002884BF6FF731A400280ED
:1022B00070470246002013890B400BB1012000E05B
:1022C00000207047CA4302817047F0B502460020E3
:1022D00000240023002501F00F070126BE40B4B200
:1022E0000B1101269E40B3B2968806EA03051689B3
:1022F000264016B10DB1012000E00020F0BD10B560
:10230000002201F00F040123A3409AB2D3430381BA
:1023100010BD00000030014000380040003C00408B
:10232000704710B5203AC0F00B80B1E81850203A41
:10233000A0E81850B1E81850A0E81850BFF4F5AF65
:102340005FEA027C24BFB1E81850A0E8185044BFEF
:1023500018C918C0BDE810405FEA827C24BF51F85C
:10236000043B40F8043B08BF7047D20728BF31F850
:10237000023B48BF11F8012B28BF20F8023B48BFA1
:1023800000F8012B704770477047704770477546DB
:1023900000F028F8AE4605006946534620F00700D5
:1023A000854618B020B5FFF731F8BDE820404FF062
:1023B00000064FF000074FF000084FF0000B21F02F
:1023C0000701AC46ACE8C009ACE8C009ACE8C009FC
:1023D000ACE8C0098D4670470446AFF30080204644
:1023E000FDF70DFF004870476004002021F0004217
:1023F000A2F16052B2F5801F01F0004328BFD2F174
:102400007F6C0BD95FEA001C43EAC20242EB5070BA
:1024100018BF704728BF20F001007047B2F5801F39
:10242000BCBF184670474FEA410C1CF5001F02D292
:10243000084600F006BB70B500F0B2F80000008955
:10244000FFF7F6BF4FF00040A0F580007047000096
:1024500010B591EA030F48BF83F0004300F1FC8000
:10246000841A71EB030C05D2121943EB0C03001B09
:1024700061EB0C01DFF824E14FEA1154A4EB135C8B
:102480001EEA430F18BF9EEA445F73D023EA0E038F
:10249000DCF1200E21EA045143F4801332D322FAF6
:1024A0000CFE10EB0E0023FA0CFE41EB0E01CCF1FA
:1024B000200E03FA0EFE10EB0E0051F10001B1F5F3
:1024C000801FCCF1200E32D201EB045112FA0EF231
:1024D000BDE8104058BF7047401C38BF5FEA420259
:1024E00018BF7047002814BF20F0010041F100011F
:1024F0004FEA410313F5001F38BF7047A1F1C041F7
:1025000000F09CB8012A43EB0302ACF1200CDCF193
:102510001F0E32BF4FF0000E23FA0CF310EB030036
:1025200041EB0451B4EB115FD0D0A1EB045101F5A4
:10253000801149085FEA300001EB04510ED350F1DD
:10254000000038BF12FA0EFE08D1BDE81040C9E7FE
:10255000401C38BF5FEA4202CAD1C3E7BDE8104061
:102560004FEA410313F5001F38BF7047A1F1C04186
:1025700000F064B89EEA445F08D011EA5E0FBDE83F
:10258000104004BF01F0004100207047BDE810403A
:1025900070B500F005F800BF64FBBE3E0000E0FF30
:1025A0000EF1020E2EF0030E5EF8046B364205D4D7
:1025B000012A43EB030515F5001F12D8012841EB52
:1025C000010C1CF5001F0CD80ED14FEAD17C15F57B
:1025D000001F0CEB4C0C0CF1020C08BF4CEBD37C35
:1025E00004E04FF0080C01E04FEAD37C0CEB4C0503
:1025F00026FA05F606F00706B6F1040C06D20EEB35
:10260000860CBDE870404CF0010C6047DFE80CF030
:10261000090B02024FF000414FF00000A1F500212C
:1026200070BD19461046012851EB010418BFD4F5BE
:10263000001484BF002001F0004170BD0808A0F51F
:1026400000114FEA3101704710B591EA030F48BFFE
:1026500083F000433FF504AF841A71EB030C07D2FB
:1026600012198CF0004C43EB0C03001B61EB0C01C6
:10267000DFF8A4E14FEA1154A4EB135C1EEA430F08
:1026800018BF9EEA445F00F0B08023EA6E03524216
:1026900021EA0451C3EB6E0338BF5B1EDCF1200E50
:1026A00025D322FA0CFE10EB0E0043FA0CFE41EB90
:1026B0000E01CCF1200E03FA0EFE10EB0E0051F1CC
:1026C0000001CCF1200E29D412FA0EF201EB0451D4
:1026D000BDE8104058BF7047401C1CBFB2F1004F0E
:1026E000704700280CBF491C20F00100704712EB16
:1026F000020E43EB030218BF4FF0010E4EEA4202F6
:10270000ACF1200CDCF11E0E54D943FA0CFE10EB98
:102710000E0051F1FF31CCF11E0ED5D50EF1010E98
:1027200012FA0EFE404141EB010101EB445C5FEA0D
:102730005C5C10D910EBDE7001EB045138BFBEF1C8
:10274000004FBDE8104018BF704700280CBF491C5F
:1027500020F00100704730D24FEAD42C11F500115F
:1027600024F400641BD0B1FA81F20B3AA41AA41E1F
:10277000D2F12003914030FA03F31943904001EB6A
:10278000CC71002C01EB0451BDE81040A8BF70478C
:1027900001F1C0414FF0000001F000417047B0FA74
:1027A00080F310FA03F100D110BDE41A173C48057C
:1027B000C90AE4E701EB045110BD491001EB0451D3
:1027C000BDE810404FEA300002E04FF000017047D2
:1027D0004A0008BF0042F8D0B2F5001F28BF70477A
:1027E00001F000414FF0000070479EEA445F07D0BF
:1027F00011EA5E0FBDE8104004BF002100207047C1
:10280000BDE8104070B5FFF7CBFE00BF40DFF63EDD
:1028100083F00041104670470000E0FF43004FEA9C
:10282000D30C4FEA3C0C43401FBF40070CF16051F2
:1028300013F0FE4F70471CF0006F03D100200CF026
:10284000004170470CF0004343EA507010B540EA75
:10285000CC0000F0B0F800BF000000924FEA000189
:10286000FFF7ECBE4FF000414FF00000A1F5002152
:1028700070470000C10DD1F19E0206DB4FEA002334
:1028800043F0004323FA02F07047004207D54FEAB5
:102890004001B1F1FE4F02D24FF00000704710B579
:1028A00000F089F849922480002070476FEA2000E8
:1028B000704700004FF47F0C1CEAD0121EBF1CEAC8
:1028C000D11392EA0C0F93EA0C0F00F0478090EAC4
:1028D000010F48BF42F480724FF0004C4CEA0020D8
:1028E0004CEA012102EB0302A0FB0113A2F5000256
:1028F000002918BF43F001035B0028BF4FEA3303F0
:1029000042EB22425FEA132C4CEBC2502EBFBCEBD1
:10291000436FB2F57C0F70474FEA036CBCF1004F78
:1029200008BF20F00100B2F57C0F38BF70470BD50F
:1029300082F0FF0212F5803FC8BF704700F1C0402F
:10294000D8BF00F00040704700F5000C5FEA4C0C67
:1029500048BF7047B0F1C04000F073B890EA010F73
:102960000CEAD11348BF42F48072624538BF634518
:1029700004D280EA010000F00040704710B500F07A
:102980001AF800BF8900013E00F007B800F009B84E
:102990005FEA410C5FEA1C6C08D080EA010000F09D
:1029A00050B85FEA400C5FEA1C6CF6D14FF0004073
:1029B000A0F5800070470EF1020E2EF0030E5EF8B7
:1029C000044B244204D44FEA4102B2F17F4F11D8A4
:1029D0004FEA4003B3F17F4F0CD80ED14FEAD07CC1
:1029E000B2F17F4F0CEB4C0C0CF1020C08BF4CEB1E
:1029F000D17C04E04FF0080C01E04FEAD17C0CEBF5
:102A00004C0324FA03F404F00704B4F1040C06D2D6
:102A10000EEB840CBDE810404CF0010C6047DFE881
:102A20000CF0070802024FF00040A0F5800010BD36
:102A30000846420018BFD2F1807288BF00F0004003
:102A400010BDFF2141EAD050C005704700000000D2
:102A5000000000000000000000000000000000086E
:102A600008080808080800001818000000486C242E
:102A70001200000000000000000000000000002420
:102A800024247F1212127F12121200000000081C70
:102A90002A2A0A0C1828282A2A1C080800000022C2
:102AA000251515152A585454542200000000000C16
:102AB0001212120A76252911916E000000060604F2
:102AC0000300000000000000000000000040201093
:102AD0001008080808080810102040000002040828
:102AE0000810101010101008080402000000000068
:102AF00008086B1C1C6B08080000000000000000A8
:102B0000080808087F080808080000000000000006
:102B100000000000000000000606040300000000A2
:102B200000000000FE0000000000000000000000A7
:102B300000000000000000000606000000008040C9
:102B400040202010100808040402020000000018B1
:102B5000244242424242424224180000000000083F
:102B60000E08080808080808083E00000000003C9D
:102B70004242422020100804427E00000000003C37
:102B80004242201820404042221C00000000002049
:102B90003028242422227E20207800000000007E9D
:102BA0000202021A26404042221C000000000038A7
:102BB0002402021A26424242241800000000007E2D
:102BC0002222101008080808080800000000003C35
:102BD0004242422418244242423C000000000018B5
:102BE0002442424264584040241C0000000000007F
:102BF0000000181800000000181800000000000075
:102C00000000000800000000000808040000004068
:102C100020100804020408102040000000000000FA
:102C200000007F0000007F000000000000000002A4
:102C30000408102040201008040200000000003C9E
:102C40004242464020101000181800000000001CEE
:102C5000225A555555552D42221C000000000008EF
:102C600008181414243C224242E700000000001F10
:102C70002222221E22424242221F00000000007C2B
:102C80004242010101010142221C00000000001F1C
:102C90002242424242424242221F00000000003FC4
:102CA0004212121E12120242423F00000000003F78
:102CB0004212121E12120202020700000000003C23
:102CC0002222010101712122221C0000000000E7E4
:102CD000424242427E42424242E700000000003E41
:102CE0000808080808080808083E00000000007CE2
:102CF00010101010101010101010110F000000779D
:102D000022120A0E0A121222227700000000000787
:102D10000202020202020202427F0000000000776B
:102D2000363636362A2A2A2A2A6B0000000000E3AB
:102D300046464A4A52525262624700000000001C56
:102D40002241414141414141221C00000000003F1D
:102D5000424242423E020202020700000000001C02
:102D60002241414141414D53321C60000000003F6F
:102D70004242423E1212222242C700000000007C62
:102D80004242020418204042423E00000000007F00
:102D90004908080808080808081C0000000000E7A7
:102DA0004242424242424242423C0000000000E7AE
:102DB0004242222424141418080800000000006B6A
:102DC000494949495555362222220000000000E7B2
:102DD000422424181818242442E700000000007739
:102DE0002222141408080808081C00000000007EB5
:102DF0002120101008040442423F00000078080817
:102E000008080808080808080808780000000202F6
:102E1000040408080810102020204040001E101054
:102E2000101010101010101010101E000038440068
:102E30000000000000000000000000000000000092
:102E40000000000000000000000000FF0006080075
:102E50000000000000000000000000000000000072
:102E60000000003C4278444242FC000000000003A5
:102E70000202021A26424242261A00000000000006
:102E800000000038440202024438000000000060E4
:102E9000404040784442424264D8000000000000B4
:102EA0000000003C427E0202423C0000000000F0B4
:102EB0008808087E08080808083E00000000000096
:102EC0000000007C22221C023C42423C0000000325
:102ED0000202023A4642424242E700000000000C71
:102EE0000C00000E08080808083E00000000003032
:102EF00030000038202020202020221E0000000367
:102F000002020272120A1612227700000000000E5E
:102F10000808080808080808083E0000000000002B
:102F20000000007F9292929292B700000000000091
:102F30000000003B4642424242E700000000000021
:102F40000000003C42424242423C000000000000BF
:102F50000000001B26424242221E02070000000021
:102F60000000007844424242447840E00000000003
:102F7000000000774C040404041F0000000000005F
:102F80000000007C42023C40423E00000000000085
:102F90000008083E0808080808300000000000008B
:102FA000000000634242424262DC00000000000078
:102FB000000000E74224241408080000000000007C
:102FC000000000EB49495555222200000000000096
:102FD0000000007624181818246E0000000000007D
:102FE000000000E74224241418080807000000002D
:102FF0000000007E22100808447E000000C020204F
:1030000020202010202020202020C0001010101090
:1030100010101010101010101010101000060808DA
:103020000808081008080808080806000C32C20042
:10303000000000000000000000000000FFFFFFFF94
:10304000FFFFFFFFFFFFFFFFFFFFFFFFFFFFFFFF90
:10305000FFFFFFFFFFFFFFFFFFFFFFFFFFFFFFFF80
:10306000FFFFFFFFFFFFFFFFFFFFFFFFFFFFFFFF70
:10307000FFFFFFFFFFFFFFFFFFFFFFFFFFFFFFFF60
:10308000FFFFFFFFFFFFFFFFFFFFFFFFFFFFFFFF50
:10309000FFFFFFFFFFFFFFFFFFFFFFFFFFFFFFFF40
:1030A000FFFFFFFFFFFFFFFFFFFFFFFFFFFFFFFF30
:1030B000FFFFFFFFFFFFFFFFFFFFFFFFFFFFFDFE23
:1030C00032E291E1B8ECFFFFFFFFFFFFFFFFFFFFE0
:1030D000FFFFFFFFFFFFFFFFFFFFFFFFFFFFFFFF00
:1030E000FFFFFFFFFFFFFFFFFFFFFFFFFFFFFFFFF0
:1030F000FFFFFFFFFFFFFFFFFFFFFFFFFFFFFFFFE0
:10310000FFFFFFFFFFFFFFFFFFFF7FDFFFDF38FD58
:103110000AD00CD809D077ECFFFFFFFFFFFFFFFFBD
:10312000FFFFFFFFFFFFFFFFFFFFFFFFFFFFFFFFAF
:10313000FFFFFFFFFFFFFFFFFFFFFFFFFFFFFFFF9F
:10314000FFFFFFFFFFFFFFFFFFFFFFFFFFFFFFFF8F
:10315000FFFFFFFFFFFFFFFFDFEF9B0CDD045CCEF7
:10316000CEF80DD012E03EFEFFFFFFFFFFFFFFFF96
:10317000FFFFFFFFFFFFFFFFFFFFFFFF3CFFD6F555
:10318000B6F5BAF6FFFFFFFF3CFFD6F5B6F5DBF666
:10319000FFFFFFFF1CFFB6F5B6F5FBFEFFFFFFFFCD
:1031A000B8EF96EFB7EFFFFF3E86DB031B047E0D03
:1031B000F6B90FF055E6EED772E7FFFFFFFFFFFF0E
:1031C000FFFFFFFF3EC7FEB6FEBE9E9634ED00D069
:1031D00000D00BE3FFFFFFFF13ED00D000D0ADE305
:1031E000FFFFFFFF71EC00D000D00FECFFFFFEFFF0
:1031F000C3BE60AEA0B6FCFF1F7E5A031D04FF04D1
:10320000748462DEE0B760AEA1B6FDFFFFFFFFFF92
:10321000FFFF5D861B043B049B03BC2475F500D0B7
:1032200000D06CE3FFFFFFFF34ED00D000D0EEE3F1
:10323000FFFFFFFFB2EC00D000D050ECFFFFFFFF1C
:10324000E3C680AEC0BEFCFF9FDFDE559F868EE5E5
:1032500021FD26CFC0AE80B6C2BEFDFFFFFFFFFF3F
:103260003D7EFB035B04DB031C35DFF775F540D0C7
:1032700000D08DE3FFFFFFFF54ED20D000D00FEC16
:10328000FFFFFFFFD2EC00D000D071ECFFFFFFFF8B
:10329000E4C680AEC1BEDCF7FFFFFFFF6DFE60FC41
:1032A00020F411FE8ED760A64FDFFFFFFFFFFD75F4
:1032B000DB037B04FB033C3DFFFFFFFF75F540D0C4
:1032C00000D08DE3FFFFFFFF54ED20D000D00FECC6
:1032D000FFFFFFFFD2EC00D000D071ECFFFFFFFF3B
:1032E000E4C680AEC1BEDCF7FFFFFFFFA4EC00EC3C
:1032F00000ECE7F4FFFFD9EFFEFFFFFFDD65DB0326
:103300007C04FB035C45FFFFFFFFFFFF75F540D02A
:1033100000D08DE3FFFFFFFF54ED20D000D00FEC75
:10332000FFFFFFFFD2EC00D000D071ECFFFFFFFFEA
:10333000E4C680AEC1BEDCF7FFFFFFFF7AFFAAF54F
:10334000E4EC51F6FFFFFFFFFFFF9C55DB037C041D
:10335000FB037C4DFFFFFFFFFFFFFFFF75F540D034
:1033600000D08DE3FFFFFFFF54ED20D000D00FEC25
:10337000FFFFFFFFD2EC00D000D070ECFFFFFFFF9B
:10338000E4C680AEC1BEDCF7FFFFFFFFFFFFFFFF1B
:10339000FFFFFFFFFFFFFFFF5C45DB037C04FB0338
:1033A0009C55FFFFFFFFFFFFFFFFFFFF75F540D0BC
:1033B00000D0ADE3FFFFFFFFF3EC00C800C86DE3F2
:1033C000FFFFFFFFD2EC00D000D070ECFFFFFFFF4B
:1033D000E4C680AEC1BEDCFFFFFFFFFFFFFFFFFFC3
:1033E000FFFFFFFF9FE7FC2CFB037C045B041D76C3
:1033F000FFFFFFFFFFFFFFFFFFFFFFFF75F540D05F
:1034000000D06CE3FFFFFFFFDBF6B2ECB1EC58F647
:10341000FFFFFFFFB2EC00D000D091ECFFFFFFFFF9
:10342000E5C680B6C0BEDBF7FFFFFFFFFFFFFFFF73
:10343000FFFFFFFF3EBFFB031B049C043B04DEAE0B
:10344000FFFFFFFFFFFFFFFFFFFFFFFF58F680D0EA
:1034500040D007DAFFFFFFFFFFFFFFFFFFFFFFFF87
:10346000FFFFFFFF2BE320D000D034EDFFFFFFFF75
:1034700007CF80B6A0B695EFFFFFFFFFFFFFFFFF6E
:10348000FFFFFFFFFFFF5ECF7B0C1B047B043B04B1
:10349000BE9EFFFFFFFFFFFFFFFFFFFFDFFF84D99F
:1034A00040D040D095EDFFFFFFFFFFFFFFFFFFFF84
:1034B000FFFF9AF6C2D080D8A1D0DAF6FFFFFFFF57
:1034C0004ED780AEA0B608CFFFFFFFFFFFFFFFFF84
:1034D000FFFFFFFFFFFFFFFF7EDF9B141B045B046A
:1034E0001B049E9EFFFFFFFFFFFFFFFFFFFFEFEBB1
:1034F00000D080D802D99AF6FFFFFFFFFFFFFFFF41
:103500007DFFA5D960D000D0AAE2FFFFFFFFFFFF3B
:10351000DAF7A0B6A0B680B62DD7FFFFFFFFFFFFFA
:10352000FFFFFFFFFFFFFFFFFFFF9FE7BB1C1B0429
:103530005B04FB039E96FFFFFFFFFFFFFFFFDFFF24
:10354000A5D900D080D881D0CEE3D7F5F7F550ECDF
:1035500002D960D040D0A1D0FBFEFFFFFFFFFFFFEC
:10356000FFFF50DF80AEA0B6A0B6E5C672E795EFCC
:1035700095E795E773E7BAF7FFFFFFFFBFEFFC247E
:10358000FB035B041B049D96FFFFFFFFFFFFFFFF94
:103590003CFF64D900D060D000D040D040D000D0F3
:1035A00060D000D0A1D058F6FFFFFFFFFFFFFFFF64
:1035B000FFFFFFFF4DD780AEA0B6A0B680AEA0B68D
:1035C000A0B6A0B660A64EDFFFFFFFFFFFFFDFF74C
:1035D0001C35FB035B04FB037D8EFFFFFFFFFFFF3A
:1035E000FFFF9EFF6CE380D000D000D000D000D061
:1035F00060D0A9E21CF7FFFFFFFFFFFFFFFFFFFF07
:10360000FFFFFFFFFFFF94E7C2BEA0B680AE80AE13
:1036100080AE80AE40A62ED7FFFFFFFFFFFFFFFF6B
:10362000FFFF7C45DB03DB037A03DD5DFFFFFFFF6C
:10363000FFFFFFFFFFFFFBF6F2ECEEE3CEE3B1ECA2
:1036400099F6FFFFFFFFFFFFFFFFFFFFFFFFFFFFF9
:10365000FFFFFFFFFFFFFFFFFFFF97EF6FDF4DD77C
:103660004DD74DD72AD796EFFFFFFFFFFFFFFFFF94
:10367000FFFFDFF73D7EDD65DD5D7C4DFFFFFFFF7A
:10368000FFFFFFFFFFFFFFFFFFFFFFFFFFFFFFFF4A
:10369000FFFFFFFFFFFFFFFFFFFFFFFFFFFFFFFF3A
:1036A000FFFFFFFFFFFFFFFFFFFFFFFFFFFFFFFF2A
:1036B000FFFFFFFFFFFFFFFFFFFFFFFFFFFFFFFF1A
:1036C000FFFFFFFFFFFFFFFFFFFFFFFFFFFFFFFF0A
:1036D000FFFFFFFFFFFFFFFFFFFFFFFFFFFFFFFFFA
:1036E000FFFFFFFFFFFFFFFFFFFFFFFFFFFFFFFFEA
:1036F000FFFFFFFFFFFFFFFFFFFFFFFFFFFFFFFFDA
:10370000FFFFFFFFFFFFFFFFFFFFFFFFFFFFFFFFC9
:10371000FFFFFFFFFFFFFFFFFFFFFFFFFFFFFFFFB9
:103720009FFFD8ECBAF5FFFFFFFFFFFFFFFFFFFF92
:10373000FFFFFFFFFFFFFFFFFFFFFFFFFFFFFFFF99
:10374000FFFFFFFFFFFFFFFFFFFFFFFFFFFFFFFF89
:10375000FFFFFFFFFFFFFFFFFFFFFFFFFFFFFFFF79
:10376000FFFFFFFFFFFFFFFFFFFFFFFFFFFF7CF6F5
:10377000F6EB2FD909D05AF5FFFF5D86FC2CFEBE73
:10378000FFFFFFFFFFFFFFFFFFFFFFFFFFFFFFFF49
:10379000FFFFFFFFFFFFFFFFFFFFFFFFFFFFFFFF39
:1037A000FFFFFFFFFFFFFFFFFFFFFFFFFFFFFFFF29
:1037B000FFFFFFFFFFFFFFFFFFFFFFFFBFFFAED8D1
:1037C0000CD037ECCFD892FABFB7FB033A039C5525
:1037D000FFFFFFFFFFFFFFFFFFFFFFFFFFFFFFFFF9
:1037E000FFFFFFFFFFFFFFFFFFFFFFFFFFFFFFFFE9
:1037F000FFFFFFFFFFFFFFFFFFFFFFFFFFFFFFFFD9
:10380000FFFFFFFFFFFFFFFFFFFFFFFF7FFF8ED8E0
:103810000AD00FD910E172FADE551B04DD5D3C3D84
:10382000BEA6FFFFFFFFFFFFFFFFFFFFFFFFFFFF42
:10383000FFFFFFFFFFFFFFFFDEFFFFFFFFFFFFFFB9
:10384000FFFFFFFFFFFFFFFFFFFFFFFFFFFFFFFF88
:10385000FFFFFFFFFFFFFFFFFFFFFFFFFFFFDDFD9C
:10386000B4E810E00BD836FC1F679F04FF0CDB03A5
:103870001FB7FEFF89F57BFFBDFFE4EC17FFFFFFDD
:1038800089F59BFFD5FE05EDE3ECCBF5FFFFFFFFD0
:10389000D5FDACF3EFE350ECF2F457FEBDFFFFFFB4
:1038A000FFFFFFFFFFFFFFFFFFFFFFFFFFFFFBF734
:1038B00051DF50DD19EDDFFFDCFFD4AD786D3FB790
:1038C000FFFFBCFF82EC7BFF0EF680E317FFB4FE28
:1038D00049F5B4F681ECF6FE38FF40EC71F6FFFFD7
:1038E00052BC4EBBF2FCB2ECD1FCCFC38EC350EC49
:1038F000B5F538FE50EC0FE4EFE317F64FDF80AE7E
:1039000021BFC0B7E8C77BF726FD80FCE0FC6EFE58
:10391000FFFF9CFF68F572F68AF5AAF571F66AF565
:10392000D5FE26F5B4FEFFFFFFFF05ED0DFEFFF708
:103930003F05FF96FFFFFFFF1F9F5F053D7EB7C559
:1039400074FDA8FA40D82BE327DA81D0C4BE09C79A
:103950004DDFC0B6E1B6EBEDA3F489F561EC00EC08
:10396000DEFFDEFF46F5A3ECD6FE71F681EC0FF626
:1039700038FFC3ECDEFFFFFF7AFF80ECB9FF1FAF1B
:103980007C0CDFEFFFFFFFFF9C1CFD75FFFFFFFFBF
:10399000DFE79C5D79E6FFFFB6F581D896EF07CFAC
:1039A000A0B6A0AEC8CE73FE27F5A2EC68F50EF661
:1039B000FFFF9CFFE0EB07EDFFFF6AF5E0EBBCFFCC
:1039C0009BFF20EC72F659FFA2ECCCF5FFFF9D6542
:1039D000FB039E967E961EB73B0C7D55DEA6DEAEA3
:1039E0005D8EFC039F769E96ECBAA9EAFFFFE5C6C2
:1039F00060A6E2BE76F7EFFD16FF26F5B4F6FFFFF0
:103A0000FFFF9CFF47F517FFFFFFEDF5ABF5FFFF4D
:103A1000FFFF92F604F5A7FDD2FEFFFFFFFF1D7E1C
:103A2000BE45BE457E3D7FCFFFAE5E3DDC2C9D5545
:103A30009E8E9D4DDF559F2DBE96FEFFFFFFFDFF25
:103A400073E7FCF7FFFF06ED17FFFFFFFFFFFFFF28
:103A5000FFFFFFFFFFFFFFFFFFFFDEFFB4F6FEFFEC
:103A60007EEFBFF71BE759CE5FDF38C679D6FFFF81
:103A70003CEFF7C5DADE79D637D6DAE6FFFFFFFF8F
:103A8000FFFFDEFFBADE7DF7FFFFDFF7FFFFFFFF7F
:103A9000FFFFFFFFFFFF68F5AAF5FFFFFFFFFFFF36
:103AA000FFFFFFFFFFFFFFFFFFFF7AFFECF5FFFFC8
:103AB0008E73AE73FFFF149DE74117C61CE7BEF778
:103AC000274AD6C5EB62CA5A79D6BADEFFFF0F8401
:103AD0006D73D29CA218CA62B29C38C6FFFFFFFF6A
:103AE000FFFFFFFFFFFF38FF40EC17FFFFFFFFFF67
:103AF000FFFFFFFFFFFFFFFFFFFFAAF52EFEFFFF07
:103B00006D6BEF7BDFFF518C484ABAD6FFFF75AD76
:103B1000694AFFFFAA52B6B5FFFFFFFF9EF72429AF
:103B2000508CB294C318EB626531FBDEFFFFFFFFE0
:103B3000FFFFFFFFFFFFFFFF50F620ECB3F6FFFF94
:103B4000FFFFFFFFFFFFFFFFAAF504EDFFFFFFFFF1
:103B5000CE7B96B59AD60000853158CEFFFF75AD65
:103B6000EB5AF39C653134AD75ADBEF7F7BD442912
:103B700034A52C6BA639EB5A8A52FFFFFFFFFFFFDB
:103B8000FFFFFFFFFFFFFFFFFFFFB3F6A1EC04ED18
:103B9000ABF50DF6AAF5E3EC68F5BDFFFFFF55ADFB
:103BA000C639BAD6695292942842D39CFFFF10843A
:103BB0004C6BAE73AE732C6B2842FFFF2C63A6399F
:103BC000AE73E739A631CA5ADBDEFFFFFFFFFFFF06
:103BD000FFFFFFFFFFFFFFFFFFFFFFFFDEFFB3F66B
:103BE000ECF5CBF50EF638FFFFFFFFFFFFFF308C43
:103BF00095B530843084FFFFF3A48E73FFFFCA5A5B
:103C000075ADAE7338C614A56D6BFFFF4D6BEF83BA
:103C1000718CEB62F39CCE7B1CE7FFFFFFFFFFFF85
:103C2000FFFFFFFFFFFFFFFFFFFFFFFFFFFFFFFFA4
:103C3000FFFFFFFFFFFFFFFFFFFFFFFFFFFFFFFF94
:103C4000FFFFBEF7FFFFFFFFFFFFFFFFBEF7DFFF36
:103C5000BEF79EF7FFFFFFFFFFFFDFFFFFFFDFFF66
:103C6000DFFFFFFFFFFFFFFFDFFFFFFFFFFFFFFFA4
:103C7000FFFFFFFFFFFFFFFFFFFFFFFFFFFFFFFF54
:103C8000FFFFFFFFFFFFFFFFFFFFFFFFFFFFFFFF44
:103C9000FFFFFFFFFFFFFFFFFFFFFFFFFFFFFFFF34
:103CA000FFFFFFFFFFFFFFFFFFFFFFFFFFFFFFFF24
:103CB000FFFFFFFFFFFFFFFFFFFFFFFF1F000000F1
:103CC000E007000000F80000FF0700001FF80000F8
:103CD000E0FF000000000000FFFF0000FC3C0008C7
:103CE00000000020980300006C010008583F000805
:103CF0009803002028070000C80100081184A24A88
:103D000004C00901020304060708092230130760F2
:103D100016F00FC0803F14C0780C1280220C1A04D9
:103D2000044A02041A0404181018010C1838010C73
:103D30003C10F9FF0310012C245A2404126612C00F
:103D400012461A4004126012C3127C12832E708035
:103D50008101600412C01403306014073030140E67
:103D60003018147C200612080214011AC01616F826
:103D70000380F10F23800F1A800E1C8001035C1A50
:103D8000075CEA03041F0CE0FFFF1F400C215904ED
:103D9000230C23231C43140683011C0303033C1A36
:103DA00007281A0E241B0C30041A08041B04F828D8
:103DB0001AC004295DC12A80443207140608601B1A
:103DC000041C5C133F601A02D01A06041F02014053
:103DD000FEFF03081A031429045A1B206910101946
:103DE0000360FCFF0360020A04601C0A0C20381206
:103DF000062030120130A0E314306062141018C2A3
:103E00001012180E82038803020F04F1031E0480AF
:103E1000030802D9802AC0041914390889041968D2
:103E20001B0360C509120409161C59181A0104293C
:103E3000441A08045A10041A18641238041780FF30
:103E40001F2603C0FFFF071A8004293D3260321885
:103E50001A0C135A030419A41C800108045E1CFCEC
:103E6000FFFF3F100928041AFC0432E08240281B9F
:103E7000E27F2C4018258108461204021022E87FB8
:103E80000407870A44723422040202180C082088AE
:103E90002088248824A824FF064902100BB8248F08
:103EA000244224402020201220181110023CEC0350
:103EB000080201020622F47F10020834100D0705E3
:103EC000040584084410247014201204130FF812FF
:103ED000081A8802168420FE7F801280180C900435
:103EE000900888108430A220400E11180A21FC7F0F
:103EF0000401F41F041108101111F41F14012423EC
:103F0000441522091271492180180C200870081FDD
:103F100009100A10087F06380E38285878940F14B4
:103F2000081208110810021A08722E0812C83F3F22
:103F300008180C02C81F58108C088B0808050E06BC
:103F4000120D8A7064202D01020304042009060763
:083F5000080902040608000044
:0400000508000131BD
:00000001FF
